{
  "contractName": "TokenSale",
  "abi": [
    {
      "constant": true,
      "inputs": [],
      "name": "tokensSold",
      "outputs": [
        {
          "name": "",
          "type": "uint256"
        }
      ],
      "payable": false,
      "stateMutability": "view",
      "type": "function"
    },
    {
      "constant": true,
      "inputs": [],
      "name": "tokenContract",
      "outputs": [
        {
          "name": "",
          "type": "address"
        }
      ],
      "payable": false,
      "stateMutability": "view",
      "type": "function"
    },
    {
      "constant": true,
      "inputs": [],
      "name": "tokenPrice",
      "outputs": [
        {
          "name": "",
          "type": "uint256"
        }
      ],
      "payable": false,
      "stateMutability": "view",
      "type": "function"
    },
    {
      "inputs": [
        {
          "name": "_tokenContract",
          "type": "address"
        },
        {
          "name": "_tokenPrice",
          "type": "uint256"
        }
      ],
      "payable": false,
      "stateMutability": "nonpayable",
      "type": "constructor"
    },
    {
      "anonymous": false,
      "inputs": [
        {
          "indexed": false,
          "name": "_buyer",
          "type": "address"
        },
        {
          "indexed": false,
          "name": "_amount",
          "type": "uint256"
        }
      ],
      "name": "Sell",
      "type": "event"
    },
    {
      "constant": false,
      "inputs": [
        {
          "name": "_numberOfTokens",
          "type": "uint256"
        }
      ],
      "name": "buyTokens",
      "outputs": [],
      "payable": true,
      "stateMutability": "payable",
      "type": "function"
    }
  ],
  "bytecode": "0x608060405234801561001057600080fd5b506040516040806105748339810180604052604081101561003057600080fd5b810190808051906020019092919080519060200190929190505050336000806101000a81548173ffffffffffffffffffffffffffffffffffffffff021916908373ffffffffffffffffffffffffffffffffffffffff16021790555081600160006101000a81548173ffffffffffffffffffffffffffffffffffffffff021916908373ffffffffffffffffffffffffffffffffffffffff160217905550806002819055505050610490806100e46000396000f3fe60806040526004361061003f5760003560e01c80633610724e14610044578063518ab2a81461007257806355a373d61461009d5780637ff9b596146100f4575b600080fd5b6100706004803603602081101561005a57600080fd5b810190808035906020019092919050505061011f565b005b34801561007e57600080fd5b5061008761033b565b6040518082815260200191505060405180910390f35b3480156100a957600080fd5b506100b2610341565b604051808273ffffffffffffffffffffffffffffffffffffffff1673ffffffffffffffffffffffffffffffffffffffff16815260200191505060405180910390f35b34801561010057600080fd5b50610109610367565b6040518082815260200191505060405180910390f35b6101346002548261036d90919063ffffffff16565b341461018b576040517f08c379a00000000000000000000000000000000000000000000000000000000081526004018080602001828103825260258152602001806104406025913960400191505060405180910390fd5b80600160009054906101000a900473ffffffffffffffffffffffffffffffffffffffff1673ffffffffffffffffffffffffffffffffffffffff166370a08231306040518263ffffffff1660e01b8152600401808273ffffffffffffffffffffffffffffffffffffffff1673ffffffffffffffffffffffffffffffffffffffff16815260200191505060206040518083038186803b15801561022b57600080fd5b505afa15801561023f573d6000803e3d6000fd5b505050506040513d602081101561025557600080fd5b810190808051906020019092919050505010156102bd576040517f08c379a000000000000000000000000000000000000000000000000000000000815260040180806020018281038252602b815260200180610415602b913960400191505060405180910390fd5b806003600082825401925050819055507f5e5e995ce3133561afceaa51a9a154d5db228cd7525d34df5185582c18d3df093382604051808373ffffffffffffffffffffffffffffffffffffffff1673ffffffffffffffffffffffffffffffffffffffff1681526020018281526020019250505060405180910390a150565b60035481565b600160009054906101000a900473ffffffffffffffffffffffffffffffffffffffff1681565b60025481565b60008083141561038057600090506103ed565b600082840290508284828161039157fe5b04146103e8576040517f08c379a00000000000000000000000000000000000000000000000000000000081526004018080602001828103825260218152602001806103f46021913960400191505060405180910390fd5b809150505b9291505056fe536166654d6174683a206d756c7469706c69636174696f6e206f766572666c6f775265717569726520746861742074686520636f6e74726163742068617320656e6f75676820746f6b656e735265717569726520746861742076616c756520697320657175616c20746f20746f6b656e73a165627a7a72305820bf92891d2c83815b93363f3ff589be3ae9aa63fdfe983da1d45c6c28863c165d0029",
  "source": "pragma solidity >=0.4.21 <0.6.0;\r\n\r\nimport './AwesomeToken.sol';\r\nimport \"openzeppelin-solidity/contracts/math/SafeMath.sol\";\r\n\r\ncontract TokenSale {\r\n\r\n  using SafeMath for uint256;\r\n\r\n  // do not want to expose admin's address\r\n  address private admin;\r\n\r\n  AwesomeToken public tokenContract;\r\n\r\n  uint256 public tokenPrice;\r\n\r\n  uint256 public tokensSold;\r\n\r\n  event Sell(address _buyer, uint256 _amount);\r\n\r\n  constructor(AwesomeToken _tokenContract, uint256 _tokenPrice) public {\r\n    // Assign an admin\r\n    admin = msg.sender;\r\n\r\n    // Token Contract\r\n    tokenContract = _tokenContract;\r\n\r\n    // Token Price\r\n    tokenPrice = _tokenPrice;\r\n  }\r\n\r\n  function buyTokens(uint256 _numberOfTokens) public payable {\r\n    // Require that value is equal to tokens\r\n    require(msg.value == _numberOfTokens.mul(tokenPrice), 'Require that value is equal to tokens');\r\n\r\n    // Require that the contract has enough tokens\r\n    require(tokenContract.balanceOf(address(this)) >= _numberOfTokens, 'Require that the contract has enough tokens');\r\n\r\n    // Require that a transfer is successful\r\n\r\n    // Keep track of token sold\r\n    tokensSold += _numberOfTokens;\r\n\r\n    // Trigger Sell Event\r\n    emit Sell(msg.sender, _numberOfTokens);\r\n  }\r\n}",
  "sourcePath": "F:/projects/blockchain/blockchain/token_sale/contracts/TokenSale.sol",
  "compiler": {
    "name": "solc",
    "version": "0.5.8+commit.23d335f2.Emscripten.clang"
  },
  "schemaVersion": "3.0.10",
  "updatedAt": "2019-06-15T13:38:46.287Z",
  "devdoc": {
    "methods": {}
  },
  "userdoc": {
    "methods": {}
  }
}