{
  "contractName": "TokenSale",
  "abi": [
    {
      "constant": true,
      "inputs": [],
      "name": "tokenContract",
      "outputs": [
        {
          "name": "",
          "type": "address"
        }
      ],
      "payable": false,
      "stateMutability": "view",
      "type": "function"
    },
    {
      "inputs": [
        {
          "name": "_tokenContract",
          "type": "address"
        }
      ],
      "payable": false,
      "stateMutability": "nonpayable",
      "type": "constructor"
    }
  ],
  "bytecode": "0x608060405234801561001057600080fd5b506040516020806101988339810180604052602081101561003057600080fd5b8101908080519060200190929190505050336000806101000a81548173ffffffffffffffffffffffffffffffffffffffff021916908373ffffffffffffffffffffffffffffffffffffffff16021790555080600160006101000a81548173ffffffffffffffffffffffffffffffffffffffff021916908373ffffffffffffffffffffffffffffffffffffffff1602179055505060c7806100d16000396000f3fe6080604052348015600f57600080fd5b506004361060285760003560e01c806355a373d614602d575b600080fd5b60336075565b604051808273ffffffffffffffffffffffffffffffffffffffff1673ffffffffffffffffffffffffffffffffffffffff16815260200191505060405180910390f35b600160009054906101000a900473ffffffffffffffffffffffffffffffffffffffff168156fea165627a7a72305820d4549a0a41f7f2730aea10436d4fd857d67e26de671678ecb71c819e1288af320029",
  "source": "pragma solidity >=0.4.21 <0.6.0;\r\n\r\nimport './AwesomeToken.sol';\r\n\r\ncontract TokenSale {\r\n  address private admin;\r\n  AwesomeToken public tokenContract;\r\n\r\n  constructor(AwesomeToken _tokenContract) public {\r\n    // Assign an admin\r\n    admin = msg.sender;\r\n\r\n    // Token Contract\r\n    tokenContract = _tokenContract;\r\n\r\n    // Token Price\r\n  }\r\n}",
  "sourcePath": "F:/projects/blockchain/blockchain/token_sale/contracts/TokenSale.sol",
  "compiler": {
    "name": "solc",
    "version": "0.5.8+commit.23d335f2.Emscripten.clang"
  },
  "schemaVersion": "3.0.10",
  "updatedAt": "2019-06-15T08:37:07.919Z",
  "devdoc": {
    "methods": {}
  },
  "userdoc": {
    "methods": {}
  }
}